C51 COMPILER V9.55   MAIN                                                                  04/25/2017 00:14:01 PAGE 1   


C51 COMPILER V9.55, COMPILATION OF MODULE MAIN
OBJECT MODULE PLACED IN main.OBJ
COMPILER INVOKED BY: C:\Keil_v5\C51\BIN\c51.exe main.c DB OE BR INCDIR(C:\SiLabs\MCU\Inc)

line level    source

   1          //-----------------------------------------------------------------------------
   2          // Includes
   3          //-----------------------------------------------------------------------------
   4          
   5          #include <c8051f020.h>                 // SFR declarations
   6          //#include <compiler_defs.h>
   7          //#include <stdio.h>
   8          //#include "lcd.h"                                         // Adding this library for LCD control
   9          
  10          //-----------------------------------------------------------------------------
  11          // 16-bit SFR Definitions for 'F02x
  12          //-----------------------------------------------------------------------------
  13          
  14          //sfr16 ADC0     = 0xbe;                 // ADC0 data
  15          sfr16 RCAP2    = 0xca;                 // Timer2 capture/reload
  16          //sfr16 RCAP3    = 0x92;                 // Timer3 capture/reload
  17          sfr16 TMR2     = 0xcc;                 // Timer2
  18          sfr16 TMR3     = 0x94;                 // Timer3
  19          
  20          //LCD Module Connections
  21          /*
  22          sbit RS = P1^0;                                                                   
  23          sbit EN = P1^2;                            
  24          sbit D0 = P2^0;
  25          sbit D1 = P2^1;
  26          sbit D2 = P2^2;
  27          sbit D3 = P2^3;
  28          sbit D4 = P2^4;
  29          sbit D5 = P2^5;
  30          sbit D6 = P2^6;
  31          sbit D7 = P2^7;
  32          */
  33          //-----------------------------------------------------------------------------
  34          // Global Constants
  35          //-----------------------------------------------------------------------------
  36          
  37          #define BAUDRATE     9600                  // Baud rate of UART in bps
  38          #define SYSTEMCLOCK       (22118400L)  // External crystal oscillator frequency
  39          
  40          //-----------------------------------------------------------------------------
  41          // Function Prototypes
  42          //-----------------------------------------------------------------------------
  43          
  44          void OSCILLATOR_Init (void);           
  45          void PORT_Init (void);
  46          void UART1_Init (void);
  47          void ADC1_Init (void);
  48          void TIMER3_Init (int counts);
  49          void Timer3_ISR ();
  50          void Wait_MS (unsigned int ms);
  51          void TransmitData (void);
  52          
  53          //-----------------------------------------------------------------------------
  54          // Global Variables
  55          //-----------------------------------------------------------------------------
C51 COMPILER V9.55   MAIN                                                                  04/25/2017 00:14:01 PAGE 2   

  56          
  57          #define UART_RX_BUFFERSIZE 40
  58          unsigned char UART_Rx_Buffer[UART_RX_BUFFERSIZE];
  59          unsigned char UART_Rx_Buffer_Size = 0;
  60          unsigned char UART_Rx_Input_First = 0;
  61          unsigned char UART_Rx_Output_First = 0;
  62          
  63          #define UART_TX_BUFFERSIZE 20
  64          unsigned char UART_Tx_Buffer[UART_TX_BUFFERSIZE];
  65          unsigned char UART_Tx_Buffer_Size = 0;
  66          unsigned char UART_Tx_Input_First = 0;
  67          unsigned char UART_Tx_Output_First = 0;
  68          
  69          unsigned char TX_Ready = 1;
  70          static char Byte;
  71          unsigned char Dial_Reading;
  72          unsigned char Temp_Reading;
  73          
  74          //-----------------------------------------------------------------------------
  75          // main() Routine
  76          //-----------------------------------------------------------------------------
  77          
  78          void main (void)
  79          {
  80   1              int i = 0;
  81   1              int j = 0;
  82   1              int k = 0;
  83   1      
  84   1      //      char startByteIndex = -1;
  85   1      //      char rxPacketStartIndex = 0;
  86   1      
  87   1      //      bit shiftArray = 0;
  88   1      
  89   1      //      bit shouldBuzzOnEmpty = 1;
  90   1      
  91   1              unsigned short averageTemp = 0;
  92   1              unsigned short controlUnitState = 0x00;
  93   1      
  94   1              WDTCN = 0xDE;                       // Disable watchdog timer
  95   1              WDTCN = 0xAD;
  96   1      
  97   1              OSCILLATOR_Init ();                 // Initialize oscillator
  98   1              PORT_Init ();                       // Initialize crossbar and GPIO
  99   1              UART1_Init ();                      // Initialize UART1 for ZigBee
 100   1      
 101   1              // Timer 3 is used for ADC1
 102   1              //TIMER3_Init (SYSTEMCLOCK/12/10);   // Initialize Timer3 to overflow at
 103   1                                            // sample rate
 104   1      
 105   1              //ADC1_Init ();                       // Init ADC
 106   1      
 107   1              EA = 1;                             // Enable global interrupts
 108   1      
 109   1              P5 = P5 & 0xFF;
 110   1      
 111   1              // Flash the LEDs on bootup for visual conf that the thing is running
 112   1      /*      for ( i = 0; i < 10; i++) 
 113   1              {
 114   1                      Wait_MS(50);
 115   1                      P5 |= 0xF0;
 116   1                      Wait_MS(50);
 117   1                      P5 = 0x00;
C51 COMPILER V9.55   MAIN                                                                  04/25/2017 00:14:01 PAGE 3   

 118   1              }
 119   1      */
 120   1              i = 0;
 121   1      
 122   1              while (1)
 123   1              {
 124   2                      //EA = 0;
 125   2      
 126   2                      // Write the initial text into the LCD display. maybe need to put in second c file.
 127   2                      /*Lcd4_Set_Cursor(1,1);
 128   2                      Lcd4_Write_String("Temp: ");
 129   2                      Lcd4_Set_Cursor(1,8);
 130   2                      Lcd4_Write_String((char*)averageTemp);
 131   2      
 132   2                      if (controlUnitState & 0x01)
 133   2                      {
 134   2                              Lcd4_Set_Cursor(1,11);
 135   2                              Lcd4_Write_String("ON");                        
 136   2                      }
 137   2                      else
 138   2                      {
 139   2                              Lcd4_Set_Cursor(1,11);
 140   2                              Lcd4_Write_String("OFF");                       
 141   2                      }
 142   2      
 143   2                      Lcd4_Set_Cursor(2,11);
 144   2                      Lcd4_Write_String("Set: ");
 145   2                      Lcd4_Write_String((char*)Dial_Reading);
 146   2                      
 147   2      
 148   2                      if (controlUnitState & 0x02)
 149   2                      {
 150   2                              Lcd4_Set_Cursor(1,8);
 151   2                              Lcd4_Write_String("NC");                        
 152   2                      }
 153   2                      else
 154   2                      {
 155   2                              Lcd4_Set_Cursor(1,8);
 156   2                              Lcd4_Write_String("  ");                        
 157   2                      }
 158   2      */
 159   2                      // Check for a ZigBee Rx Packet API frame that contains a combo set/actual temp pair, 
 160   2                      // and if it is, read the first two bytes
 161   2                      if (UART_Rx_Buffer_Size == 18 && UART_Rx_Buffer[0] == 0x7E && UART_Rx_Buffer[3] == 0x90)
 162   2                      {
 163   3                              // Assign the control unit's computed temp average to a variable
 164   3                              averageTemp = UART_Rx_Buffer[15];
 165   3                              controlUnitState = UART_Rx_Buffer[16];
 166   3                              UART_Rx_Buffer_Size = 0; // reset buffer
 167   3                      }
 168   2                      else 
 169   2                      {
 170   3                              UART_Rx_Buffer_Size = 0;
 171   3                      }
 172   2      //              EA = 1;
 173   2      
 174   2                      // Check the control unit state for whether the A/C unit is
 175   2                      // on and cooling the room or off
 176   2                      /*
 177   2                      if (controlUnitState & 0x01) 
 178   2                      {
 179   2                              P5 |= 0x10;
C51 COMPILER V9.55   MAIN                                                                  04/25/2017 00:14:01 PAGE 4   

 180   2                      }
 181   2                      else 
 182   2                      {
 183   2                              P5 &= ~0x10;
 184   2                      }
 185   2      */
 186   2      //              EA = 0;
 187   2      
 188   2                      // Check the control unit state for coolant remaining or empty
 189   2                      /*
 190   2                      if (controlUnitState & 0x02)
 191   2                      {
 192   2                              P5 &= ~0x20;
 193   2                              
 194   2                              // this condition will get hit over and over so let's not
 195   2                              // keep sounding the buzzer each time. Do it once.
 196   2                              if (shouldBuzzOnEmpty) 
 197   2                              {                       
 198   2                                      shouldBuzzOnEmpty = 0;
 199   2                              }
 200   2                      }
 201   2                      else 
 202   2                      {
 203   2                              P5 |= 0x20;
 204   2      
 205   2                              // coolant remains so make sure next time it goes 'dry' we
 206   2                              // activate the buzzer
 207   2                              shouldBuzzOnEmpty = 1;
 208   2                      }
 209   2      */
 210   2      //              EA = 1;
 211   2      
 212   2                      if(TX_Ready == 1 && j == 0)
 213   2                      {       
 214   3                              TransmitData();
 215   3                              UART_Tx_Buffer_Size = 0;
 216   3                      }
 217   2      
 218   2                      j++;
 219   2      
 220   2                      if (j == 12) j = 0;
 221   2      
 222   2                      Wait_MS(150);           // Wait some time before taking
 223   2                                             // another sample
 224   2              }
 225   1      }
 226          
 227          //-----------------------------------------------------------------------------
 228          // Initialization Subroutines
 229          //-----------------------------------------------------------------------------
 230          
 231          //-----------------------------------------------------------------------------
 232          // OSCILLATOR_Init
 233          //-----------------------------------------------------------------------------
 234          //
 235          // Return Value : None
 236          // Parameters   : None
 237          //
 238          // This routine initializes the system clock to use an 22.1184MHz crystal
 239          // as its clock source.
 240          //
 241          //
C51 COMPILER V9.55   MAIN                                                                  04/25/2017 00:14:01 PAGE 5   

 242          //-----------------------------------------------------------------------------
 243          void OSCILLATOR_Init (void)
 244          {
 245   1         int i;                              // Software timer
 246   1      
 247   1         OSCICN |= 0x80;                     // Enable the missing clock detector
 248   1      
 249   1         // Initialize external crystal oscillator to use 22.1184 MHz crystal
 250   1      
 251   1         OSCXCN = 0x67;                      // Enable external crystal osc.
 252   1         for (i=0; i < 256; i++);            // Wait at least 1ms
 253   1         while (!(OSCXCN & 0x80));           // Wait for crystal osc to settle
 254   1         OSCICN |= 0x08;                     // Select external clock source
 255   1         OSCICN &= ~0x04;                    // Disable the internal osc.
 256   1      }
 257          
 258          //-----------------------------------------------------------------------------
 259          // PORT_Init
 260          //-----------------------------------------------------------------------------
 261          //
 262          // Return Value : None
 263          // Parameters   : None
 264          //
 265          // This function configures the crossbar and GPIO ports.
 266          //
 267          // P0.2   digital   push-pull     UART TX
 268          // P0.3   digital   open-drain    UART RX
 269          
 270          //-----------------------------------------------------------------------------
 271          void PORT_Init (void)
 272          {
 273   1         XBR0    = 0x04;                     // Route UART0 to crossbar
 274   1              XBR1 = 0x00;
 275   1         XBR2    = 0x44;                    // Enable crossbar,  weak pull-ups,
 276   1                                                                                 // and enable UART1
 277   1      
 278   1         P0MDOUT |= 0x04;                     // Set UART TX pins to push-pull on port 0
 279   1      
 280   1      //   P0MDOUT |= 0x01;                    // Set TX1 pin to push-pull
 281   1      //   P0MDOUT |= 0x40;                    // Set P0.6 to digital out
 282   1      //   P1MDOUT |= 0x40;                    // Set P1.6(LED) to push-pull
 283   1      
 284   1              //P1MDOUT |= 0x07;              // Set port 1 pin 1, 2, 3 to output push-pull digital
 285   1      
 286   1              P2MDOUT = 0x00;
 287   1              P3MDOUT = 0x00;
 288   1      
 289   1              P74OUT = 0x08;
 290   1      
 291   1              P5 |= 0x0F;
 292   1              P4 = 0xFF;
 293   1      
 294   1              //P2MDOUT = 0xFF;
 295   1      
 296   1              // Analog inputs - take care to change otherwise will destroy TM36
 297   1              //P1MDIN &= ~0x40;
 298   1              //P1MDIN &= ~0x80;
 299   1              //P1 |= 0x40;
 300   1              //P1 |= 0x80;
 301   1      }
 302          
 303          //-----------------------------------------------------------------------------
C51 COMPILER V9.55   MAIN                                                                  04/25/2017 00:14:01 PAGE 6   

 304          // UART1_Init
 305          //-----------------------------------------------------------------------------
 306          //
 307          // Return Value : None
 308          // Parameters   : None
 309          //
 310          // Configure the UART1 using Timer1, for <baudrate> and 8-N-1.
 311          // This routine configures the UART1 based on the following equation:
 312          //
 313          // Baud = (2^SMOD1/32)*(SYSTEMCLOCK*12^(T1M-1))/(256-TH1)
 314          //
 315          // This equation can be found in the datasheet, Mode1 baud rate using timer1.
 316          // The function select the proper values of the SMOD1 and T1M bits to allow
 317          // for the proper baud rate to be reached.
 318          //-----------------------------------------------------------------------------
 319          void UART1_Init (void)
 320          {
 321   1         SCON1   = 0x50;                     // SCON1: mode 1, 8-bit UART, enable RX
 322   1      
 323   1         TMOD   &= ~0xF0;
 324   1         TMOD   |=  0x20;                    // TMOD: timer 1, mode 2, 8-bit reload
 325   1      
 326   1      
 327   1         PCON |= 0x10;                    // SMOD1 (PCON.4) = 1 --> UART1 baudrate
 328   1                                             // divide-by-two disabled
 329   1         CKCON |= 0x10;                   // Timer1 uses the SYSTEMCLOCK
 330   1         TH1 = - ((SYSTEMCLOCK/BAUDRATE)/16);
 331   1      
 332   1         TL1 = TH1;                          // init Timer1
 333   1         TR1 = 1;                            // START Timer1
 334   1         TX_Ready = 1;                       // Flag showing that UART can transmit
 335   1         EIE2     = 0x40;                    // Enable UART1 interrupts
 336   1      
 337   1         EIP2    = 0x40;                     // Make UART high priority
 338   1      
 339   1      }
 340          
 341          //-----------------------------------------------------------------------------
 342          // TIMER3_Init
 343          //-----------------------------------------------------------------------------
 344          //
 345          // Return Value : None
 346          // Parameters   :
 347          //   1)  int counts - calculated Timer overflow rate
 348          //                    range is postive range of integer: 0 to 32767
 349          //
 350          // Configure Timer3 to auto-reload at interval specified by <counts> (no
 351          // interrupt generated) using SYSCLK as its time base.
 352          //
 353          //-----------------------------------------------------------------------------
 354          /* void TIMER3_Init (unsigned int counts)
 355          {
 356          
 357             TMR3CN = 0x00;                      // Stop Timer3; Clear TF3; set sysclk
 358                                                 // as timebase
 359                  TMR3RLL = -counts;
 360                  TMR3 = 0xFFFF;
 361                  EIE2 |= 0x01;
 362                  TMR3CN |= 0x04;
 363          }
 364          */
 365          //-----------------------------------------------------------------------------
C51 COMPILER V9.55   MAIN                                                                  04/25/2017 00:14:01 PAGE 7   

 366          // Interrupt Service Routines
 367          //-----------------------------------------------------------------------------
 368          /*
 369          void Timer3_ISR(void) interrupt 14
 370          {
 371                  float temp = 0.0f;
 372                  float dial = 0.0f;
 373          
 374                  TMR3CN &= ~(0x80);
 375          
 376                  //while((ADC1CN & 0x20) == 0);  
 377          
 378                  if (AMX1SL == 0x06)
 379                  {
 380          //              Temp_Reading = ADC1;
 381                          temp = ((float)ADC1 - 91.0f) * 1.8f;
 382                          Temp_Reading = (short)temp + 32;
 383          
 384                          AMX1SL = 0x07;
 385                  }
 386                  else
 387                  {
 388                          dial = (((float)ADC1 - 14.0f) * 0.16597510) + 50;
 389          
 390                          if (dial < 50.0f) dial = 50.0f;
 391                          else if (dial > 89.5f) dial = 90.0f;
 392          
 393                          Dial_Reading = (short)dial;
 394                          AMX1SL = 0x06;
 395                  }
 396          
 397                  ADC1CN &= 0xDF;
 398          }
 399          */
 400          //-----------------------------------------------------------------------------
 401          // ADC1_Init
 402          //-----------------------------------------------------------------------------
 403          //
 404          // Return Value : None
 405          // Parameters   : None
 406          //
 407          //-----------------------------------------------------------------------------
 408          /*
 409          void ADC1_Init (void)
 410          {
 411                  REF0CN = 0x03;
 412          
 413                  ADC1CF = 0x81;//(SYSCLK/SAR_CLK) << 3;     // ADC conversion clock = 2.5MHz
 414                  //ADC1CF |= 0x00;
 415          
 416                  AMX1SL = 0x06;
 417                  ADC1CN = 0x82; // enable ADC interrupts
 418          }
 419          */
 420          
 421          //-----------------------------------------------------------------------------
 422          // Interrupt Service Routines
 423          //-----------------------------------------------------------------------------
 424          
 425          //-----------------------------------------------------------------------------
 426          // UART1_Interrupt
 427          //-----------------------------------------------------------------------------
C51 COMPILER V9.55   MAIN                                                                  04/25/2017 00:14:01 PAGE 8   

 428          //
 429          // This routine is invoked whenever a byte is received from UART or transmitted.
 430          //
 431          //-----------------------------------------------------------------------------
 432          
 433          void UART1_Interrupt (void) interrupt 20
 434          {
 435   1         if ((SCON1 & 0x01) == 0x01)
 436   1         {
 437   2            // Check if a new word is being entered
 438   2            if( UART_Rx_Buffer_Size == 0)  
 439   2                {
 440   3               UART_Rx_Input_First = 0; 
 441   3                } 
 442   2      
 443   2            SCON1 = (SCON1 & 0xFE);          //RI1 = 0;
 444   2            Byte = SBUF1;                    // Read a character from Hyperterminal
 445   2                      
 446   2            if (UART_Rx_Buffer_Size < UART_RX_BUFFERSIZE)
 447   2            {
 448   3               UART_Rx_Buffer[UART_Rx_Input_First] = Byte;  // Store character
 449   3      
 450   3               UART_Rx_Buffer_Size++;            // Update array's size
 451   3      
 452   3               UART_Rx_Input_First++;            // Update counter
 453   3            }
 454   2         }
 455   1      
 456   1         if ((SCON1 & 0x02) == 0x02)         // Check if transmit flag is set
 457   1         {
 458   2            SCON1 = (SCON1 & 0xFD);
 459   2            if (UART_Tx_Buffer_Size > 0)        // If buffer not empty
 460   2            {
 461   3               SBUF1 = UART_Tx_Buffer[UART_Tx_Output_First];
 462   3      
 463   3               UART_Tx_Output_First++;           // Update counter
 464   3               UART_Tx_Buffer_Size--;            // Decrease array size
 465   3            }
 466   2            else
 467   2            {
 468   3               UART_Tx_Output_First = 0;
 469   3               UART_Tx_Buffer_Size = 0;           // Set the array size to 0
 470   3               TX_Ready = 1;                   // Indicate transmission complete
 471   3            }
 472   2         }
 473   1      }
 474          
 475          //-----------------------------------------------------------------------------
 476          // Support Subroutines
 477          //-----------------------------------------------------------------------------
 478          
 479          //-----------------------------------------------------------------------------
 480          // TransmitData
 481          //-----------------------------------------------------------------------------
 482          //
 483          // Transmits a ZigBee Transmit Request frame with the "set" temp in payload 
 484          // byte 0 the actual room temp from the theromstat's temp sensor in byte 1
 485          //
 486          //-----------------------------------------------------------------------------
 487          
 488          void TransmitData()
 489          {
C51 COMPILER V9.55   MAIN                                                                  04/25/2017 00:14:01 PAGE 9   

 490   1              short i = 0;
 491   1              int sum = 0;
 492   1      
 493   1              UART_Tx_Buffer[0] = 0x7E; // start byte
 494   1              UART_Tx_Buffer[1] = 0x00; // Length MSB
 495   1              UART_Tx_Buffer[2] = 0x10; // Length LSB
 496   1              UART_Tx_Buffer[3] = 0x10; // frame type (0x10 = transmit request)
 497   1              UART_Tx_Buffer[4] = 0x00; // frame ID - 0 means no ack
 498   1      
 499   1              UART_Tx_Buffer[5] = 0xFF;       // start 64-bit addr
 500   1              UART_Tx_Buffer[6] = 0xFF;
 501   1              UART_Tx_Buffer[7] = 0xFF;
 502   1              UART_Tx_Buffer[8] = 0xFF;
 503   1              UART_Tx_Buffer[9] = 0xFF;
 504   1              UART_Tx_Buffer[10] = 0xFF;
 505   1              UART_Tx_Buffer[11] = 0xFF;
 506   1              UART_Tx_Buffer[12] = 0xFF;
 507   1      
 508   1              UART_Tx_Buffer[13] = 0xFF;      // 16-bit net addr
 509   1              UART_Tx_Buffer[14] = 0xFE;
 510   1      
 511   1              UART_Tx_Buffer[15] = 0x00;
 512   1              UART_Tx_Buffer[16] = 0x01; // do not retry
 513   1      
 514   1              UART_Tx_Buffer[17] = 0x37;//Dial_Reading;
 515   1              UART_Tx_Buffer[18] = 0x38;//Temp_Reading;
 516   1      
 517   1              // compute the checksum per the ZigBee API spec
 518   1              // Algorithm: Add all bytes except the first three, then remove
 519   1              // all but the first 8 bits and subtract that value from 0xFF
 520   1              for ( i = 3; i <= 18; i++ )
 521   1              {
 522   2                      sum = sum + (int)UART_Tx_Buffer[i];
 523   2              }
 524   1      
 525   1              UART_Tx_Buffer[19] = 0xFF - (sum & ~0xFF00); // checksum
 526   1              UART_Tx_Buffer_Size = 19;
 527   1      
 528   1              TX_Ready = 0;
 529   1              SCON1 = (SCON1 | 0x02);
 530   1      }
 531          
 532          
 533          //-----------------------------------------------------------------------------
 534          // Wait_MS
 535          //-----------------------------------------------------------------------------
 536          //
 537          // Return Value : None
 538          // Parameters:
 539          //   1) unsigned int ms - number of milliseconds of delay
 540          //                        range is full range of integer: 0 to 65335
 541          //
 542          // This routine inserts a delay of <ms> milliseconds.
 543          //
 544          //-----------------------------------------------------------------------------
 545          void Wait_MS(unsigned int ms)
 546          {
 547   1      
 548   1         CKCON &= ~0x20;                     // use SYSCLK/12 as timebase
 549   1      
 550   1         RCAP2 = -(SYSTEMCLOCK/1000/12);          // Timer 2 overflows at 1 kHz
 551   1         TMR2 = RCAP2;
C51 COMPILER V9.55   MAIN                                                                  04/25/2017 00:14:01 PAGE 10  

 552   1      
 553   1         ET2 = 0;                            // Disable Timer 2 interrupts
 554   1      
 555   1         TR2 = 1;                            // Start Timer 2
 556   1      
 557   1         while(ms)
 558   1         {
 559   2            TF2 = 0;                         // Clear flag to initialize
 560   2            while(!TF2);                     // Wait until timer overflows
 561   2            ms--;                            // Decrement ms
 562   2         }
 563   1      
 564   1         TR2 = 0;                            // Stop Timer 2
 565   1      
 566   1      }
 567          
 568          //-----------------------------------------------------------------------------
 569          // End Of File
 570          //-----------------------------------------------------------------------------


MODULE INFORMATION:   STATIC OVERLAYABLE
   CODE SIZE        =    436    ----
   CONSTANT SIZE    =   ----    ----
   XDATA SIZE       =   ----    ----
   PDATA SIZE       =   ----    ----
   DATA SIZE        =     70      10
   IDATA SIZE       =   ----    ----
   BIT SIZE         =   ----    ----
END OF MODULE INFORMATION.


C51 COMPILATION COMPLETE.  0 WARNING(S),  0 ERROR(S)
