BL51 BANKED LINKER/LOCATER V6.22              04/25/2017  00:14:01  PAGE 1


BL51 BANKED LINKER/LOCATER V6.22, INVOKED BY:
C:\KEIL_V5\C51\BIN\BL51.EXE C:\Users\bioha\OneDrive\Documents\Projects\8051-th
>> ermostat\main.obj TO C:\Users\bioha\OneDrive\Documents\Projects\8051-thermo
>> stat\temp RS (256) PL (68) PW (78)


MEMORY MODEL: SMALL


INPUT MODULES INCLUDED:
  C:\Users\bioha\OneDrive\Documents\Projects\8051-thermostat\main.obj (MAIN)
  C:\KEIL_V5\C51\LIB\C51S.LIB (?C_STARTUP)
  C:\KEIL_V5\C51\LIB\C51S.LIB (?C_INIT)


LINK MAP OF MODULE:  C:\Users\bioha\OneDrive\Documents\Projects\8051-thermosta
>> t\temp (MAIN)


            TYPE    BASE      LENGTH    RELOCATION   SEGMENT NAME
            -----------------------------------------------------

            * * * * * * *   D A T A   M E M O R Y   * * * * * * *
            REG     0000H     0008H     ABSOLUTE     "REG BANK 0"
            DATA    0008H     0046H     UNIT         ?DT?MAIN
            DATA    004EH     000AH     UNIT         _DATA_GROUP_
            IDATA   0058H     0001H     UNIT         ?STACK

            * * * * * * *   C O D E   M E M O R Y   * * * * * * *
            CODE    0000H     0003H     ABSOLUTE     
                    0003H     00A0H                  *** GAP ***
            CODE    00A3H     0003H     ABSOLUTE     
                    00A6H     075AH                  *** GAP ***
            CODE    0800H     008CH     UNIT         ?C_C51STARTUP
            CODE    088CH     0077H     UNIT         ?PR?MAIN?MAIN
            CODE    0903H     0061H     UNIT         ?PR?TRANSMITDATA?MAIN
            CODE    0964H     0059H     UNIT         ?PR?UART1_INTERRUPT?MAIN
            CODE    09BDH     0026H     UNIT         ?PR?_WAIT_MS?MAIN
            CODE    09E3H     0022H     UNIT         ?PR?OSCILLATOR_INIT?MAIN
            CODE    0A05H     0021H     UNIT         ?PR?UART1_INIT?MAIN
            CODE    0A26H     001AH     UNIT         ?PR?PORT_INIT?MAIN
            CODE    0A40H     0016H     UNIT         ?C_INITSEG



OVERLAY MAP OF MODULE:   C:\Users\bioha\OneDrive\Documents\Projects\8051-therm
>> ostat\temp (MAIN)


SEGMENT                            DATA_GROUP 
  +--> CALLED SEGMENT            START    LENGTH
------------------------------------------------
?C_C51STARTUP                    -----    -----
  +--> ?PR?MAIN?MAIN
  +--> ?C_INITSEG

?PR?MAIN?MAIN                    004EH    000AH
  +--> ?PR?OSCILLATOR_INIT?MAIN
  +--> ?PR?PORT_INIT?MAIN
  +--> ?PR?UART1_INIT?MAIN
  +--> ?PR?TRANSMITDATA?MAIN
  +--> ?PR?_WAIT_MS?MAIN



SYMBOL TABLE OF MODULE:  C:\Users\bioha\OneDrive\Documents\Projects\8051-therm
BL51 BANKED LINKER/LOCATER V6.22            04/25/2017  00:14:01  PAGE 2


>> ostat\temp (MAIN)

  VALUE           TYPE          NAME
  ----------------------------------

  -------         MODULE        MAIN
  C:0000H         SYMBOL        _ICE_DUMMY_
  D:00FFH         PUBLIC        WDTCN
  D:0084H         PUBLIC        P4
  D:0008H         PUBLIC        TX_Ready
  D:0085H         PUBLIC        P5
  B:00A8H.7       PUBLIC        EA
  D:00E7H         PUBLIC        EIE2
  D:00E8H         PUBLIC        ADC0CN
  D:00A4H         PUBLIC        P0MDOUT
  D:00A8H         PUBLIC        IE
  D:00A6H         PUBLIC        P2MDOUT
  D:00A7H         PUBLIC        P3MDOUT
  D:00F7H         PUBLIC        EIP2
  D:0009H         SYMBOL        Byte
  D:00D8H         PUBLIC        PCA0CN
  C:09BDH         PUBLIC        _Wait_MS
  D:00B8H         PUBLIC        IP
  D:000AH         PUBLIC        Dial_Reading
  D:00E1H         PUBLIC        XBR0
  D:00E2H         PUBLIC        XBR1
  D:00E3H         PUBLIC        XBR2
  C:0964H         PUBLIC        UART1_Interrupt
  D:000BH         PUBLIC        UART_Rx_Buffer_Size
  D:00C0H         PUBLIC        SMB0CN
  D:00CCH         PUBLIC        TMR2
  C:088CH         PUBLIC        main
  D:000CH         PUBLIC        UART_Tx_Buffer_Size
  D:000DH         PUBLIC        UART_Rx_Buffer
  D:0035H         PUBLIC        UART_Tx_Buffer
  D:00F8H         PUBLIC        SPI0CN
  D:0087H         PUBLIC        PCON
  D:00B5H         PUBLIC        P74OUT
  D:0089H         PUBLIC        TMOD
  D:0088H         PUBLIC        TCON
  D:0049H         PUBLIC        Temp_Reading
  C:0A26H         PUBLIC        PORT_Init
  D:00B2H         PUBLIC        OSCICN
  D:004AH         PUBLIC        UART_Rx_Input_First
  D:004BH         PUBLIC        UART_Tx_Input_First
  D:004CH         PUBLIC        UART_Rx_Output_First
  B:00A8H.5       PUBLIC        ET2
  D:004DH         PUBLIC        UART_Tx_Output_First
  B:00C8H.7       PUBLIC        TF2
  D:008DH         PUBLIC        TH1
  D:00B1H         PUBLIC        OSCXCN
  D:008BH         PUBLIC        TL1
  C:0903H         PUBLIC        TransmitData
  B:0088H.6       PUBLIC        TR1
  B:00C8H.2       PUBLIC        TR2
  D:00CAH         PUBLIC        RCAP2
  D:00F2H         PUBLIC        SBUF1
  D:0098H         PUBLIC        SCON0
  C:0A05H         PUBLIC        UART1_Init
  D:00F1H         PUBLIC        SCON1
  D:00C8H         PUBLIC        T2CON
  D:008EH         PUBLIC        CKCON
  C:09E3H         PUBLIC        OSCILLATOR_Init
  D:00D0H         PUBLIC        PSW
  -------         PROC          MAIN
BL51 BANKED LINKER/LOCATER V6.22            04/25/2017  00:14:01  PAGE 3


  -------         DO            
  D:004EH         SYMBOL        i
  D:0050H         SYMBOL        j
  D:0052H         SYMBOL        k
  D:0054H         SYMBOL        averageTemp
  D:0056H         SYMBOL        controlUnitState
  -------         ENDDO         
  C:088CH         LINE#         78
  C:088CH         LINE#         79
  C:088CH         LINE#         80
  C:0891H         LINE#         81
  C:0895H         LINE#         82
  C:0899H         LINE#         91
  C:089DH         LINE#         92
  C:08A1H         LINE#         94
  C:08A4H         LINE#         95
  C:08A7H         LINE#         97
  C:08AAH         LINE#         98
  C:08ADH         LINE#         99
  C:08B0H         LINE#         107
  C:08B2H         LINE#         109
  C:08B2H         LINE#         120
  C:08B7H         LINE#         122
  C:08B7H         LINE#         123
  C:08B7H         LINE#         161
  C:08C6H         LINE#         162
  C:08C6H         LINE#         164
  C:08CCH         LINE#         165
  C:08D2H         LINE#         166
  C:08D2H         LINE#         167
  C:08D4H         LINE#         169
  C:08D4H         LINE#         170
  C:08D7H         LINE#         171
  C:08D7H         LINE#         212
  C:08E2H         LINE#         213
  C:08E2H         LINE#         214
  C:08E5H         LINE#         215
  C:08E8H         LINE#         216
  C:08E8H         LINE#         218
  C:08F0H         LINE#         220
  C:08FAH         LINE#         222
  C:0901H         LINE#         224
  -------         ENDPROC       MAIN
  -------         PROC          OSCILLATOR_INIT
  -------         DO            
  D:0006H         SYMBOL        i
  -------         ENDDO         
  C:09E3H         LINE#         243
  C:09E3H         LINE#         244
  C:09E3H         LINE#         247
  C:09E6H         LINE#         251
  C:09E9H         LINE#         252
  C:09F9H         LINE#         253
  C:09FEH         LINE#         254
  C:0A01H         LINE#         255
  C:0A04H         LINE#         256
  -------         ENDPROC       OSCILLATOR_INIT
  -------         PROC          PORT_INIT
  C:0A26H         LINE#         271
  C:0A26H         LINE#         272
  C:0A26H         LINE#         273
  C:0A29H         LINE#         274
  C:0A2CH         LINE#         275
  C:0A2FH         LINE#         278
  C:0A32H         LINE#         286
BL51 BANKED LINKER/LOCATER V6.22            04/25/2017  00:14:01  PAGE 4


  C:0A34H         LINE#         287
  C:0A36H         LINE#         289
  C:0A39H         LINE#         291
  C:0A3CH         LINE#         292
  C:0A3FH         LINE#         301
  -------         ENDPROC       PORT_INIT
  -------         PROC          UART1_INIT
  C:0A05H         LINE#         319
  C:0A05H         LINE#         320
  C:0A05H         LINE#         321
  C:0A08H         LINE#         323
  C:0A0BH         LINE#         324
  C:0A0EH         LINE#         327
  C:0A11H         LINE#         329
  C:0A14H         LINE#         330
  C:0A17H         LINE#         332
  C:0A1AH         LINE#         333
  C:0A1CH         LINE#         334
  C:0A1FH         LINE#         335
  C:0A22H         LINE#         337
  C:0A25H         LINE#         339
  -------         ENDPROC       UART1_INIT
  -------         PROC          UART1_INTERRUPT
  C:0964H         LINE#         433
  C:096DH         LINE#         435
  C:0972H         LINE#         436
  C:0972H         LINE#         438
  C:0976H         LINE#         439
  C:0976H         LINE#         440
  C:0978H         LINE#         441
  C:0978H         LINE#         443
  C:097BH         LINE#         444
  C:097EH         LINE#         446
  C:0985H         LINE#         447
  C:0985H         LINE#         448
  C:098CH         LINE#         450
  C:098EH         LINE#         452
  C:0990H         LINE#         453
  C:0990H         LINE#         454
  C:0990H         LINE#         456
  C:0995H         LINE#         457
  C:0995H         LINE#         458
  C:0998H         LINE#         459
  C:099FH         LINE#         460
  C:099FH         LINE#         461
  C:09A7H         LINE#         463
  C:09A9H         LINE#         464
  C:09ABH         LINE#         465
  C:09ADH         LINE#         467
  C:09ADH         LINE#         468
  C:09B0H         LINE#         469
  C:09B3H         LINE#         470
  C:09B6H         LINE#         471
  C:09B6H         LINE#         472
  C:09B6H         LINE#         473
  -------         ENDPROC       UART1_INTERRUPT
  -------         PROC          TRANSMITDATA
  -------         DO            
  D:0006H         SYMBOL        i
  D:0004H         SYMBOL        sum
  -------         ENDDO         
  C:0903H         LINE#         488
  C:0903H         LINE#         489
  C:0903H         LINE#         490
  C:0905H         LINE#         491
BL51 BANKED LINKER/LOCATER V6.22            04/25/2017  00:14:01  PAGE 5


  C:0907H         LINE#         493
  C:090AH         LINE#         494
  C:090CH         LINE#         495
  C:090FH         LINE#         496
  C:0912H         LINE#         497
  C:0914H         LINE#         499
  C:0917H         LINE#         500
  C:091AH         LINE#         501
  C:091DH         LINE#         502
  C:0920H         LINE#         503
  C:0923H         LINE#         504
  C:0926H         LINE#         505
  C:0929H         LINE#         506
  C:092CH         LINE#         508
  C:092FH         LINE#         509
  C:0932H         LINE#         511
  C:0934H         LINE#         512
  C:0937H         LINE#         514
  C:093AH         LINE#         515
  C:093DH         LINE#         520
  C:093FH         LINE#         521
  C:093FH         LINE#         522
  C:0949H         LINE#         523
  C:0954H         LINE#         525
  C:095AH         LINE#         526
  C:095DH         LINE#         528
  C:0960H         LINE#         529
  C:0963H         LINE#         530
  -------         ENDPROC       TRANSMITDATA
  -------         PROC          _WAIT_MS
  D:0006H         SYMBOL        ms
  C:09BDH         LINE#         545
  C:09BDH         LINE#         546
  C:09BDH         LINE#         548
  C:09C0H         LINE#         550
  C:09C6H         LINE#         551
  C:09CCH         LINE#         553
  C:09CEH         LINE#         555
  C:09D0H         LINE#         557
  C:09D4H         LINE#         558
  C:09D4H         LINE#         559
  C:09D6H         LINE#         560
  C:09D9H         LINE#         561
  C:09DEH         LINE#         562
  C:09E0H         LINE#         564
  C:09E2H         LINE#         566
  -------         ENDPROC       _WAIT_MS
  -------         ENDMOD        MAIN

******************************************************************************
>> 
* RESTRICTED VERSION WITH 0800H BYTE CODE SIZE LIMIT; USED: 01CCH BYTE (22%) *
>> 
******************************************************************************
>> 

Program Size: data=89.0 xdata=0 code=604
LINK/LOCATE RUN COMPLETE.  0 WARNING(S),  0 ERROR(S)
